{
  "_format": "hh-sol-artifact-1",
  "contractName": "CrowdFunding",
  "sourceName": "contracts/crowdfunding.sol",
  "abi": [
    {
      "inputs": [
        {
          "internalType": "uint256",
          "name": "_target",
          "type": "uint256"
        }
      ],
      "stateMutability": "nonpayable",
      "type": "constructor"
    },
    {
      "anonymous": false,
      "inputs": [
        {
          "indexed": true,
          "internalType": "address",
          "name": "creator",
          "type": "address"
        },
        {
          "indexed": false,
          "internalType": "string",
          "name": "title",
          "type": "string"
        },
        {
          "indexed": false,
          "internalType": "uint256",
          "name": "amount",
          "type": "uint256"
        },
        {
          "indexed": false,
          "internalType": "uint256",
          "name": "deadline",
          "type": "uint256"
        }
      ],
      "name": "CampaignCreated",
      "type": "event"
    },
    {
      "anonymous": false,
      "inputs": [
        {
          "indexed": false,
          "internalType": "uint256",
          "name": "totalFunds",
          "type": "uint256"
        },
        {
          "indexed": false,
          "internalType": "bool",
          "name": "succeeded",
          "type": "bool"
        }
      ],
      "name": "CampaignEnded",
      "type": "event"
    },
    {
      "anonymous": false,
      "inputs": [
        {
          "indexed": true,
          "internalType": "address",
          "name": "contributor",
          "type": "address"
        },
        {
          "indexed": false,
          "internalType": "uint256",
          "name": "amount",
          "type": "uint256"
        }
      ],
      "name": "FundsContributed",
      "type": "event"
    },
    {
      "inputs": [],
      "name": "campaignCounter",
      "outputs": [
        {
          "internalType": "uint256",
          "name": "",
          "type": "uint256"
        }
      ],
      "stateMutability": "view",
      "type": "function"
    },
    {
      "inputs": [],
      "name": "campaignEnded",
      "outputs": [
        {
          "internalType": "bool",
          "name": "",
          "type": "bool"
        }
      ],
      "stateMutability": "view",
      "type": "function"
    },
    {
      "inputs": [
        {
          "internalType": "uint256",
          "name": "",
          "type": "uint256"
        }
      ],
      "name": "campaigns",
      "outputs": [
        {
          "internalType": "address",
          "name": "creator",
          "type": "address"
        },
        {
          "internalType": "string",
          "name": "title",
          "type": "string"
        },
        {
          "internalType": "string",
          "name": "description",
          "type": "string"
        },
        {
          "internalType": "uint256",
          "name": "amount",
          "type": "uint256"
        },
        {
          "internalType": "uint256",
          "name": "deadline",
          "type": "uint256"
        },
        {
          "internalType": "uint256",
          "name": "amountCollected",
          "type": "uint256"
        },
        {
          "internalType": "bool",
          "name": "active",
          "type": "bool"
        }
      ],
      "stateMutability": "view",
      "type": "function"
    },
    {
      "inputs": [
        {
          "internalType": "uint256",
          "name": "_campaignId",
          "type": "uint256"
        }
      ],
      "name": "contribute",
      "outputs": [],
      "stateMutability": "payable",
      "type": "function"
    },
    {
      "inputs": [
        {
          "internalType": "address",
          "name": "",
          "type": "address"
        }
      ],
      "name": "contributors",
      "outputs": [
        {
          "internalType": "uint256",
          "name": "",
          "type": "uint256"
        }
      ],
      "stateMutability": "view",
      "type": "function"
    },
    {
      "inputs": [
        {
          "internalType": "string",
          "name": "_title",
          "type": "string"
        },
        {
          "internalType": "string",
          "name": "_description",
          "type": "string"
        },
        {
          "internalType": "uint256",
          "name": "_amount",
          "type": "uint256"
        },
        {
          "internalType": "uint256",
          "name": "_deadline",
          "type": "uint256"
        }
      ],
      "name": "createCampaign",
      "outputs": [],
      "stateMutability": "nonpayable",
      "type": "function"
    },
    {
      "inputs": [],
      "name": "getBalance",
      "outputs": [
        {
          "internalType": "uint256",
          "name": "",
          "type": "uint256"
        }
      ],
      "stateMutability": "view",
      "type": "function"
    },
    {
      "inputs": [],
      "name": "getCampaigns",
      "outputs": [
        {
          "components": [
            {
              "internalType": "address",
              "name": "creator",
              "type": "address"
            },
            {
              "internalType": "string",
              "name": "title",
              "type": "string"
            },
            {
              "internalType": "string",
              "name": "description",
              "type": "string"
            },
            {
              "internalType": "uint256",
              "name": "amount",
              "type": "uint256"
            },
            {
              "internalType": "uint256",
              "name": "deadline",
              "type": "uint256"
            },
            {
              "internalType": "uint256",
              "name": "amountCollected",
              "type": "uint256"
            },
            {
              "internalType": "bool",
              "name": "active",
              "type": "bool"
            }
          ],
          "internalType": "struct CrowdFunding.Campaign[]",
          "name": "",
          "type": "tuple[]"
        }
      ],
      "stateMutability": "view",
      "type": "function"
    },
    {
      "inputs": [],
      "name": "owner",
      "outputs": [
        {
          "internalType": "address",
          "name": "",
          "type": "address"
        }
      ],
      "stateMutability": "view",
      "type": "function"
    },
    {
      "inputs": [],
      "name": "target",
      "outputs": [
        {
          "internalType": "uint256",
          "name": "",
          "type": "uint256"
        }
      ],
      "stateMutability": "view",
      "type": "function"
    },
    {
      "inputs": [],
      "name": "totalFunds",
      "outputs": [
        {
          "internalType": "uint256",
          "name": "",
          "type": "uint256"
        }
      ],
      "stateMutability": "view",
      "type": "function"
    },
    {
      "inputs": [],
      "name": "withdrawFunds",
      "outputs": [],
      "stateMutability": "nonpayable",
      "type": "function"
    }
  ],
  "bytecode": "0x608060405234801561001057600080fd5b50604051611dc5380380611dc5833981810160405281019061003291906100d5565b336000806101000a81548173ffffffffffffffffffffffffffffffffffffffff021916908373ffffffffffffffffffffffffffffffffffffffff160217905550806002819055506000600360006101000a81548160ff02191690831515021790555050610102565b600080fd5b6000819050919050565b6100b28161009f565b81146100bd57600080fd5b50565b6000815190506100cf816100a9565b92915050565b6000602082840312156100eb576100ea61009a565b5b60006100f9848285016100c0565b91505092915050565b611cb4806101116000396000f3fe6080604052600436106100a75760003560e01c8063968ed60011610064578063968ed600146101c4578063a318f269146101ef578063a6b0363314610218578063c1cbbca714610243578063d4b839921461025f578063fca604d71461028a576100a7565b806312065fe0146100ac578063141961bc146100d75780631f6d49421461011a57806324600fc3146101575780633bc47fbe1461016e5780638da5cb5b14610199575b600080fd5b3480156100b857600080fd5b506100c16102b5565b6040516100ce9190610e61565b60405180910390f35b3480156100e357600080fd5b506100fe60048036038101906100f99190610ebc565b6102bd565b6040516101119796959493929190610fd5565b60405180910390f35b34801561012657600080fd5b50610141600480360381019061013c919061107e565b61043c565b60405161014e9190610e61565b60405180910390f35b34801561016357600080fd5b5061016c610454565b005b34801561017a57600080fd5b506101836105e1565b60405161019091906110ab565b60405180910390f35b3480156101a557600080fd5b506101ae6105f4565b6040516101bb91906110c6565b60405180910390f35b3480156101d057600080fd5b506101d9610618565b6040516101e69190610e61565b60405180910390f35b3480156101fb57600080fd5b5061021660048036038101906102119190611216565b61061e565b005b34801561022457600080fd5b5061022d610879565b60405161023a9190611491565b60405180910390f35b61025d60048036038101906102589190610ebc565b610ae6565b005b34801561026b57600080fd5b50610274610d2a565b6040516102819190610e61565b60405180910390f35b34801561029657600080fd5b5061029f610d30565b6040516102ac9190610e61565b60405180910390f35b600047905090565b60056020528060005260406000206000915090508060000160009054906101000a900473ffffffffffffffffffffffffffffffffffffffff1690806001018054610306906114e2565b80601f0160208091040260200160405190810160405280929190818152602001828054610332906114e2565b801561037f5780601f106103545761010080835404028352916020019161037f565b820191906000526020600020905b81548152906001019060200180831161036257829003601f168201915b505050505090806002018054610394906114e2565b80601f01602080910402602001604051908101604052809291908181526020018280546103c0906114e2565b801561040d5780601f106103e25761010080835404028352916020019161040d565b820191906000526020600020905b8154815290600101906020018083116103f057829003601f168201915b5050505050908060030154908060040154908060050154908060060160009054906101000a900460ff16905087565b60046020528060005260406000206000915090505481565b60008054906101000a900473ffffffffffffffffffffffffffffffffffffffff1673ffffffffffffffffffffffffffffffffffffffff163373ffffffffffffffffffffffffffffffffffffffff16146104e2576040517f08c379a00000000000000000000000000000000000000000000000000000000081526004016104d990611585565b60405180910390fd5b600360009054906101000a900460ff16610531576040517f08c379a0000000000000000000000000000000000000000000000000000000008152600401610528906115f1565b60405180910390fd5b600154471015610576576040517f08c379a000000000000000000000000000000000000000000000000000000000815260040161056d9061165d565b60405180910390fd5b60008054906101000a900473ffffffffffffffffffffffffffffffffffffffff1673ffffffffffffffffffffffffffffffffffffffff166108fc6001549081150290604051600060405180830381858888f193505050501580156105de573d6000803e3d6000fd5b50565b600360009054906101000a900460ff1681565b60008054906101000a900473ffffffffffffffffffffffffffffffffffffffff1681565b60015481565b600360009054906101000a900460ff161561066e576040517f08c379a0000000000000000000000000000000000000000000000000000000008152600401610665906116c9565b60405180910390fd5b600082116106b1576040517f08c379a00000000000000000000000000000000000000000000000000000000081526004016106a89061175b565b60405180910390fd5b4281116106f3576040517f08c379a00000000000000000000000000000000000000000000000000000000081526004016106ea906117c7565b60405180910390fd5b6040518060e001604052803373ffffffffffffffffffffffffffffffffffffffff168152602001858152602001848152602001838152602001828152602001600081526020016001151581525060056000600654815260200190815260200160002060008201518160000160006101000a81548173ffffffffffffffffffffffffffffffffffffffff021916908373ffffffffffffffffffffffffffffffffffffffff16021790555060208201518160010190816107b19190611993565b5060408201518160020190816107c79190611993565b50606082015181600301556080820151816004015560a0820151816005015560c08201518160060160006101000a81548160ff0219169083151502179055509050506006600081548092919061081c90611a94565b91905055503373ffffffffffffffffffffffffffffffffffffffff167fe7fb2efe3ee36e0c1888be0b2f0c2d6ca124512b55c10cce8cf13c835b9d948885848460405161086b93929190611adc565b60405180910390a250505050565b6060600060065467ffffffffffffffff811115610899576108986110eb565b5b6040519080825280602002602001820160405280156108d257816020015b6108bf610df3565b8152602001906001900390816108b75790505b50905060005b600654811015610ade57600560008281526020019081526020016000206040518060e00160405290816000820160009054906101000a900473ffffffffffffffffffffffffffffffffffffffff1673ffffffffffffffffffffffffffffffffffffffff1673ffffffffffffffffffffffffffffffffffffffff168152602001600182018054610966906114e2565b80601f0160208091040260200160405190810160405280929190818152602001828054610992906114e2565b80156109df5780601f106109b4576101008083540402835291602001916109df565b820191906000526020600020905b8154815290600101906020018083116109c257829003601f168201915b505050505081526020016002820180546109f8906114e2565b80601f0160208091040260200160405190810160405280929190818152602001828054610a24906114e2565b8015610a715780601f10610a4657610100808354040283529160200191610a71565b820191906000526020600020905b815481529060010190602001808311610a5457829003601f168201915b505050505081526020016003820154815260200160048201548152602001600582015481526020016006820160009054906101000a900460ff161515151581525050828281518110610ac657610ac5611b1a565b5b602002602001018190525080806001019150506108d8565b508091505090565b600360009054906101000a900460ff1615610b36576040517f08c379a0000000000000000000000000000000000000000000000000000000008152600401610b2d906116c9565b60405180910390fd5b6005600082815260200190815260200160002060060160009054906101000a900460ff16610b99576040517f08c379a0000000000000000000000000000000000000000000000000000000008152600401610b9090611b95565b60405180910390fd5b60003411610bdc576040517f08c379a0000000000000000000000000000000000000000000000000000000008152600401610bd39061175b565b60405180910390fd5b60056000828152602001908152602001600020600401544210610c34576040517f08c379a0000000000000000000000000000000000000000000000000000000008152600401610c2b90611c01565b60405180910390fd5b34600460003373ffffffffffffffffffffffffffffffffffffffff1673ffffffffffffffffffffffffffffffffffffffff1681526020019081526020016000206000828254610c839190611c21565b9250508190555034600560008381526020019081526020016000206005016000828254610cb09190611c21565b925050819055503460016000828254610cc99190611c21565b925050819055503373ffffffffffffffffffffffffffffffffffffffff167f9bbf3d0d68a39a76179c2f4e76adef6fa674e6a6e430aa1da5b0d6a6bf6efd5f34604051610d169190610e61565b60405180910390a2610d2781610d36565b50565b60025481565b60065481565b6005600082815260200190815260200160002060030154600560008381526020019081526020016000206005015410610df05760006005600083815260200190815260200160002060060160006101000a81548160ff0219169083151502179055506001600360006101000a81548160ff0219169083151502179055507f75d9b4c220529dda63dce075aa4c186e8f24151ecc185e707577fbfb5ab5b3736001546001604051610de7929190611c55565b60405180910390a15b50565b6040518060e00160405280600073ffffffffffffffffffffffffffffffffffffffff16815260200160608152602001606081526020016000815260200160008152602001600081526020016000151581525090565b6000819050919050565b610e5b81610e48565b82525050565b6000602082019050610e766000830184610e52565b92915050565b6000604051905090565b600080fd5b600080fd5b610e9981610e48565b8114610ea457600080fd5b50565b600081359050610eb681610e90565b92915050565b600060208284031215610ed257610ed1610e86565b5b6000610ee084828501610ea7565b91505092915050565b600073ffffffffffffffffffffffffffffffffffffffff82169050919050565b6000610f1482610ee9565b9050919050565b610f2481610f09565b82525050565b600081519050919050565b600082825260208201905092915050565b60005b83811015610f64578082015181840152602081019050610f49565b60008484015250505050565b6000601f19601f8301169050919050565b6000610f8c82610f2a565b610f968185610f35565b9350610fa6818560208601610f46565b610faf81610f70565b840191505092915050565b60008115159050919050565b610fcf81610fba565b82525050565b600060e082019050610fea600083018a610f1b565b8181036020830152610ffc8189610f81565b905081810360408301526110108188610f81565b905061101f6060830187610e52565b61102c6080830186610e52565b61103960a0830185610e52565b61104660c0830184610fc6565b98975050505050505050565b61105b81610f09565b811461106657600080fd5b50565b60008135905061107881611052565b92915050565b60006020828403121561109457611093610e86565b5b60006110a284828501611069565b91505092915050565b60006020820190506110c06000830184610fc6565b92915050565b60006020820190506110db6000830184610f1b565b92915050565b600080fd5b600080fd5b7f4e487b7100000000000000000000000000000000000000000000000000000000600052604160045260246000fd5b61112382610f70565b810181811067ffffffffffffffff82111715611142576111416110eb565b5b80604052505050565b6000611155610e7c565b9050611161828261111a565b919050565b600067ffffffffffffffff821115611181576111806110eb565b5b61118a82610f70565b9050602081019050919050565b82818337600083830152505050565b60006111b96111b484611166565b61114b565b9050828152602081018484840111156111d5576111d46110e6565b5b6111e0848285611197565b509392505050565b600082601f8301126111fd576111fc6110e1565b5b813561120d8482602086016111a6565b91505092915050565b600080600080608085870312156112305761122f610e86565b5b600085013567ffffffffffffffff81111561124e5761124d610e8b565b5b61125a878288016111e8565b945050602085013567ffffffffffffffff81111561127b5761127a610e8b565b5b611287878288016111e8565b935050604061129887828801610ea7565b92505060606112a987828801610ea7565b91505092959194509250565b600081519050919050565b600082825260208201905092915050565b6000819050602082019050919050565b6112ea81610f09565b82525050565b600082825260208201905092915050565b600061130c82610f2a565b61131681856112f0565b9350611326818560208601610f46565b61132f81610f70565b840191505092915050565b61134381610e48565b82525050565b61135281610fba565b82525050565b600060e08301600083015161137060008601826112e1565b50602083015184820360208601526113888282611301565b915050604083015184820360408601526113a28282611301565b91505060608301516113b7606086018261133a565b5060808301516113ca608086018261133a565b5060a08301516113dd60a086018261133a565b5060c08301516113f060c0860182611349565b508091505092915050565b60006114078383611358565b905092915050565b6000602082019050919050565b6000611427826112b5565b61143181856112c0565b935083602082028501611443856112d1565b8060005b8581101561147f578484038952815161146085826113fb565b945061146b8361140f565b925060208a01995050600181019050611447565b50829750879550505050505092915050565b600060208201905081810360008301526114ab818461141c565b905092915050565b7f4e487b7100000000000000000000000000000000000000000000000000000000600052602260045260246000fd5b600060028204905060018216806114fa57607f821691505b60208210810361150d5761150c6114b3565b5b50919050565b7f4f6e6c7920746865206f776e65722063616e2063616c6c20746869732066756e60008201527f6374696f6e000000000000000000000000000000000000000000000000000000602082015250565b600061156f602583610f35565b915061157a82611513565b604082019050919050565b6000602082019050818103600083015261159e81611562565b9050919050565b7f43616d706169676e20686173206e6f7420656e64656420796574000000000000600082015250565b60006115db601a83610f35565b91506115e6826115a5565b602082019050919050565b6000602082019050818103600083015261160a816115ce565b9050919050565b7f496e73756666696369656e742066756e64730000000000000000000000000000600082015250565b6000611647601283610f35565b915061165282611611565b602082019050919050565b600060208201905081810360008301526116768161163a565b9050919050565b7f43616d706169676e2068617320616c726561647920656e646564000000000000600082015250565b60006116b3601a83610f35565b91506116be8261167d565b602082019050919050565b600060208201905081810360008301526116e2816116a6565b9050919050565b7f436f6e747269627574696f6e20616d6f756e74206d757374206265206772656160008201527f746572207468616e203000000000000000000000000000000000000000000000602082015250565b6000611745602a83610f35565b9150611750826116e9565b604082019050919050565b6000602082019050818103600083015261177481611738565b9050919050565b7f446561646c696e65206d75737420626520696e20746865206675747572650000600082015250565b60006117b1601e83610f35565b91506117bc8261177b565b602082019050919050565b600060208201905081810360008301526117e0816117a4565b9050919050565b60008190508160005260206000209050919050565b60006020601f8301049050919050565b600082821b905092915050565b6000600883026118497fffffffffffffffffffffffffffffffffffffffffffffffffffffffffffffffff8261180c565b611853868361180c565b95508019841693508086168417925050509392505050565b6000819050919050565b600061189061188b61188684610e48565b61186b565b610e48565b9050919050565b6000819050919050565b6118aa83611875565b6118be6118b682611897565b848454611819565b825550505050565b600090565b6118d36118c6565b6118de8184846118a1565b505050565b5b81811015611902576118f76000826118cb565b6001810190506118e4565b5050565b601f82111561194757611918816117e7565b611921846117fc565b81016020851015611930578190505b61194461193c856117fc565b8301826118e3565b50505b505050565b600082821c905092915050565b600061196a6000198460080261194c565b1980831691505092915050565b60006119838383611959565b9150826002028217905092915050565b61199c82610f2a565b67ffffffffffffffff8111156119b5576119b46110eb565b5b6119bf82546114e2565b6119ca828285611906565b600060209050601f8311600181146119fd57600084156119eb578287015190505b6119f58582611977565b865550611a5d565b601f198416611a0b866117e7565b60005b82811015611a3357848901518255600182019150602085019450602081019050611a0e565b86831015611a505784890151611a4c601f891682611959565b8355505b6001600288020188555050505b505050505050565b7f4e487b7100000000000000000000000000000000000000000000000000000000600052601160045260246000fd5b6000611a9f82610e48565b91507fffffffffffffffffffffffffffffffffffffffffffffffffffffffffffffffff8203611ad157611ad0611a65565b5b600182019050919050565b60006060820190508181036000830152611af68186610f81565b9050611b056020830185610e52565b611b126040830184610e52565b949350505050565b7f4e487b7100000000000000000000000000000000000000000000000000000000600052603260045260246000fd5b7f43616d706169676e206973206e6f742061637469766500000000000000000000600082015250565b6000611b7f601683610f35565b9150611b8a82611b49565b602082019050919050565b60006020820190508181036000830152611bae81611b72565b9050919050565b7f43616d706169676e20646561646c696e65206861732070617373656400000000600082015250565b6000611beb601c83610f35565b9150611bf682611bb5565b602082019050919050565b60006020820190508181036000830152611c1a81611bde565b9050919050565b6000611c2c82610e48565b9150611c3783610e48565b9250828201905080821115611c4f57611c4e611a65565b5b92915050565b6000604082019050611c6a6000830185610e52565b611c776020830184610fc6565b939250505056fea2646970667358221220396d94e99b287d6e929df0af636a6cfdf601bb6e65fa31e0e0e0698e3f5cfe5464736f6c634300081c0033",
  "linkReferences": {},
  "deployedLinkReferences": {}
}